{
  "contractName": "MyContract",
  "abi": [
    {
      "inputs": [],
      "name": "myName",
      "outputs": [
        {
          "internalType": "string",
          "name": "",
          "type": "string"
        }
      ],
      "stateMutability": "view",
      "type": "function",
      "constant": true
    },
    {
      "inputs": [
        {
          "internalType": "string",
          "name": "_myName",
          "type": "string"
        }
      ],
      "name": "setName",
      "outputs": [],
      "stateMutability": "nonpayable",
      "type": "function"
    },
    {
      "inputs": [],
      "name": "getName",
      "outputs": [
        {
          "internalType": "string",
          "name": "",
          "type": "string"
        }
      ],
      "stateMutability": "view",
      "type": "function",
      "constant": true
    }
  ],
  "bytecode": "0x608060405234801561001057600080fd5b5061073c806100206000396000f3fe608060405234801561001057600080fd5b50600436106100415760003560e01c806317d7de7c14610046578063c47f002714610064578063fae2dd4b14610080575b600080fd5b61004e61009e565b60405161005b919061026a565b60405180910390f35b61007e600480360381019061007991906103d5565b610130565b005b610088610143565b604051610095919061026a565b60405180910390f35b6060600080546100ad9061044d565b80601f01602080910402602001604051908101604052809291908181526020018280546100d99061044d565b80156101265780601f106100fb57610100808354040283529160200191610126565b820191906000526020600020905b81548152906001019060200180831161010957829003601f168201915b5050505050905090565b806000908161013f9190610634565b5050565b600080546101509061044d565b80601f016020809104026020016040519081016040528092919081815260200182805461017c9061044d565b80156101c95780601f1061019e576101008083540402835291602001916101c9565b820191906000526020600020905b8154815290600101906020018083116101ac57829003601f168201915b505050505081565b600081519050919050565b600082825260208201905092915050565b60005b8381101561020b5780820151818401526020810190506101f0565b8381111561021a576000848401525b50505050565b6000601f19601f8301169050919050565b600061023c826101d1565b61024681856101dc565b93506102568185602086016101ed565b61025f81610220565b840191505092915050565b600060208201905081810360008301526102848184610231565b905092915050565b6000604051905090565b600080fd5b600080fd5b600080fd5b600080fd5b7f4e487b7100000000000000000000000000000000000000000000000000000000600052604160045260246000fd5b6102e282610220565b810181811067ffffffffffffffff82111715610301576103006102aa565b5b80604052505050565b600061031461028c565b905061032082826102d9565b919050565b600067ffffffffffffffff8211156103405761033f6102aa565b5b61034982610220565b9050602081019050919050565b82818337600083830152505050565b600061037861037384610325565b61030a565b905082815260208101848484011115610394576103936102a5565b5b61039f848285610356565b509392505050565b600082601f8301126103bc576103bb6102a0565b5b81356103cc848260208601610365565b91505092915050565b6000602082840312156103eb576103ea610296565b5b600082013567ffffffffffffffff8111156104095761040861029b565b5b610415848285016103a7565b91505092915050565b7f4e487b7100000000000000000000000000000000000000000000000000000000600052602260045260246000fd5b6000600282049050600182168061046557607f821691505b6020821081036104785761047761041e565b5b50919050565b60008190508160005260206000209050919050565b60006020601f8301049050919050565b600082821b905092915050565b6000600883026104e07fffffffffffffffffffffffffffffffffffffffffffffffffffffffffffffffff826104a3565b6104ea86836104a3565b95508019841693508086168417925050509392505050565b6000819050919050565b6000819050919050565b600061053161052c61052784610502565b61050c565b610502565b9050919050565b6000819050919050565b61054b83610516565b61055f61055782610538565b8484546104b0565b825550505050565b600090565b610574610567565b61057f818484610542565b505050565b5b818110156105a35761059860008261056c565b600181019050610585565b5050565b601f8211156105e8576105b98161047e565b6105c284610493565b810160208510156105d1578190505b6105e56105dd85610493565b830182610584565b50505b505050565b600082821c905092915050565b600061060b600019846008026105ed565b1980831691505092915050565b600061062483836105fa565b9150826002028217905092915050565b61063d826101d1565b67ffffffffffffffff811115610656576106556102aa565b5b610660825461044d565b61066b8282856105a7565b600060209050601f83116001811461069e576000841561068c578287015190505b6106968582610618565b8655506106fe565b601f1984166106ac8661047e565b60005b828110156106d4578489015182556001820191506020850194506020810190506106af565b868310156106f157848901516106ed601f8916826105fa565b8355505b6001600288020188555050505b50505050505056fea2646970667358221220797a0de70facd3754cb08d0a4cd102c9b5a0bdd2c6a2f4b935c2759ed8324c4b64736f6c634300080f0033",
  "immutableReferences": {},
  "source": "// SPDX-License-Identifier: GPL-3.0\r\npragma solidity ^0.8.15;\r\n\r\ncontract MyContract {\r\n   \r\n string public myName;\r\n\r\n function setName(string memory _myName) public {\r\n myName = _myName;\r\n }\r\n\r\n function getName() public view returns(string memory){\r\n    return myName;\r\n }\r\n}",
  "sourcePath": "C:\\Users\\fujitsu\\Documents\\truffleweb33\\contracts\\MyContract.sol",
  "compiler": {
    "name": "solc",
    "version": "0.8.15+commit.e14f2714.Emscripten.clang"
  },
  "schemaVersion": "3.4.8",
  "updatedAt": "2022-08-05T17:29:56.976Z",
  "networkType": "ethereum",
  "devdoc": {
    "kind": "dev",
    "methods": {},
    "version": 1
  },
  "userdoc": {
    "kind": "user",
    "methods": {},
    "version": 1
  }
}